{
  "_format": "hh-sol-artifact-1",
  "contractName": "NftContract",
  "sourceName": "contracts/NftContract.sol",
  "abi": [
    {
      "inputs": [],
      "stateMutability": "nonpayable",
      "type": "constructor"
    },
    {
      "anonymous": false,
      "inputs": [
        {
          "indexed": true,
          "internalType": "address",
          "name": "owner",
          "type": "address"
        },
        {
          "indexed": true,
          "internalType": "address",
          "name": "approved",
          "type": "address"
        },
        {
          "indexed": true,
          "internalType": "uint256",
          "name": "tokenId",
          "type": "uint256"
        }
      ],
      "name": "Approval",
      "type": "event"
    },
    {
      "anonymous": false,
      "inputs": [
        {
          "indexed": true,
          "internalType": "address",
          "name": "owner",
          "type": "address"
        },
        {
          "indexed": true,
          "internalType": "address",
          "name": "operator",
          "type": "address"
        },
        {
          "indexed": false,
          "internalType": "bool",
          "name": "approved",
          "type": "bool"
        }
      ],
      "name": "ApprovalForAll",
      "type": "event"
    },
    {
      "anonymous": false,
      "inputs": [
        {
          "indexed": true,
          "internalType": "address",
          "name": "from",
          "type": "address"
        },
        {
          "indexed": true,
          "internalType": "address",
          "name": "to",
          "type": "address"
        },
        {
          "indexed": true,
          "internalType": "uint256",
          "name": "tokenId",
          "type": "uint256"
        }
      ],
      "name": "Transfer",
      "type": "event"
    },
    {
      "inputs": [
        {
          "internalType": "address",
          "name": "to",
          "type": "address"
        },
        {
          "internalType": "uint256",
          "name": "tokenId",
          "type": "uint256"
        }
      ],
      "name": "approve",
      "outputs": [],
      "stateMutability": "nonpayable",
      "type": "function"
    },
    {
      "inputs": [
        {
          "internalType": "address",
          "name": "owner",
          "type": "address"
        }
      ],
      "name": "balanceOf",
      "outputs": [
        {
          "internalType": "uint256",
          "name": "",
          "type": "uint256"
        }
      ],
      "stateMutability": "view",
      "type": "function"
    },
    {
      "inputs": [
        {
          "internalType": "string",
          "name": "tokenURI",
          "type": "string"
        }
      ],
      "name": "createToken",
      "outputs": [
        {
          "internalType": "uint256",
          "name": "",
          "type": "uint256"
        }
      ],
      "stateMutability": "nonpayable",
      "type": "function"
    },
    {
      "inputs": [
        {
          "internalType": "uint256",
          "name": "tokenId",
          "type": "uint256"
        }
      ],
      "name": "getApproved",
      "outputs": [
        {
          "internalType": "address",
          "name": "",
          "type": "address"
        }
      ],
      "stateMutability": "view",
      "type": "function"
    },
    {
      "inputs": [
        {
          "internalType": "address",
          "name": "owner",
          "type": "address"
        },
        {
          "internalType": "address",
          "name": "operator",
          "type": "address"
        }
      ],
      "name": "isApprovedForAll",
      "outputs": [
        {
          "internalType": "bool",
          "name": "",
          "type": "bool"
        }
      ],
      "stateMutability": "view",
      "type": "function"
    },
    {
      "inputs": [],
      "name": "name",
      "outputs": [
        {
          "internalType": "string",
          "name": "",
          "type": "string"
        }
      ],
      "stateMutability": "view",
      "type": "function"
    },
    {
      "inputs": [
        {
          "internalType": "uint256",
          "name": "",
          "type": "uint256"
        }
      ],
      "name": "nftIndexToOwner",
      "outputs": [
        {
          "internalType": "address",
          "name": "",
          "type": "address"
        }
      ],
      "stateMutability": "view",
      "type": "function"
    },
    {
      "inputs": [
        {
          "internalType": "uint256",
          "name": "tokenId",
          "type": "uint256"
        }
      ],
      "name": "ownerOf",
      "outputs": [
        {
          "internalType": "address",
          "name": "",
          "type": "address"
        }
      ],
      "stateMutability": "view",
      "type": "function"
    },
    {
      "inputs": [
        {
          "internalType": "address",
          "name": "from",
          "type": "address"
        },
        {
          "internalType": "address",
          "name": "to",
          "type": "address"
        },
        {
          "internalType": "uint256",
          "name": "tokenId",
          "type": "uint256"
        }
      ],
      "name": "safeTransferFrom",
      "outputs": [],
      "stateMutability": "nonpayable",
      "type": "function"
    },
    {
      "inputs": [
        {
          "internalType": "address",
          "name": "from",
          "type": "address"
        },
        {
          "internalType": "address",
          "name": "to",
          "type": "address"
        },
        {
          "internalType": "uint256",
          "name": "tokenId",
          "type": "uint256"
        },
        {
          "internalType": "bytes",
          "name": "_data",
          "type": "bytes"
        }
      ],
      "name": "safeTransferFrom",
      "outputs": [],
      "stateMutability": "nonpayable",
      "type": "function"
    },
    {
      "inputs": [
        {
          "internalType": "address",
          "name": "operator",
          "type": "address"
        },
        {
          "internalType": "bool",
          "name": "approved",
          "type": "bool"
        }
      ],
      "name": "setApprovalForAll",
      "outputs": [],
      "stateMutability": "nonpayable",
      "type": "function"
    },
    {
      "inputs": [
        {
          "internalType": "bytes4",
          "name": "interfaceId",
          "type": "bytes4"
        }
      ],
      "name": "supportsInterface",
      "outputs": [
        {
          "internalType": "bool",
          "name": "",
          "type": "bool"
        }
      ],
      "stateMutability": "view",
      "type": "function"
    },
    {
      "inputs": [],
      "name": "symbol",
      "outputs": [
        {
          "internalType": "string",
          "name": "",
          "type": "string"
        }
      ],
      "stateMutability": "view",
      "type": "function"
    },
    {
      "inputs": [
        {
          "internalType": "uint256",
          "name": "tokenId",
          "type": "uint256"
        }
      ],
      "name": "tokenURI",
      "outputs": [
        {
          "internalType": "string",
          "name": "",
          "type": "string"
        }
      ],
      "stateMutability": "view",
      "type": "function"
    },
    {
      "inputs": [
        {
          "internalType": "address",
          "name": "_owner",
          "type": "address"
        }
      ],
      "name": "tokensOfOwner",
      "outputs": [
        {
          "internalType": "uint256[]",
          "name": "ownerTokens",
          "type": "uint256[]"
        }
      ],
      "stateMutability": "view",
      "type": "function"
    },
    {
      "inputs": [
        {
          "internalType": "address",
          "name": "from",
          "type": "address"
        },
        {
          "internalType": "address",
          "name": "to",
          "type": "address"
        },
        {
          "internalType": "uint256",
          "name": "tokenId",
          "type": "uint256"
        }
      ],
      "name": "transferFrom",
      "outputs": [],
      "stateMutability": "nonpayable",
      "type": "function"
    }
  ],
  "bytecode": "0x60806040523480156200001157600080fd5b506040518060400160405280600581526020017f4c6f6f74730000000000000000000000000000000000000000000000000000008152506040518060400160405280600481526020017f4c4f4f5400000000000000000000000000000000000000000000000000000000815250816000908051906020019062000096929190620000b8565b508060019080519060200190620000af929190620000b8565b505050620001cd565b828054620000c69062000168565b90600052602060002090601f016020900481019282620000ea576000855562000136565b82601f106200010557805160ff191683800117855562000136565b8280016001018555821562000136579182015b828111156200013557825182559160200191906001019062000118565b5b50905062000145919062000149565b5090565b5b80821115620001645760008160009055506001016200014a565b5090565b600060028204905060018216806200018157607f821691505b602082108114156200019857620001976200019e565b5b50919050565b7f4e487b7100000000000000000000000000000000000000000000000000000000600052602260045260246000fd5b612f5d80620001dd6000396000f3fe608060405234801561001057600080fd5b50600436106101005760003560e01c806370a0823111610097578063a22cb46511610066578063a22cb465146102e5578063b88d4fde14610301578063c87b56dd1461031d578063e985e9c51461034d57610100565b806370a0823114610237578063747d1abb146102675780638462151c1461029757806395d89b41146102c757610100565b806323b872dd116100d357806323b872dd1461019f57806342842e0e146101bb57806345576f94146101d75780636352211e1461020757610100565b806301ffc9a71461010557806306fdde0314610135578063081812fc14610153578063095ea7b314610183575b600080fd5b61011f600480360381019061011a9190611ee9565b61037d565b60405161012c91906123d7565b60405180910390f35b61013d61045f565b60405161014a91906123f2565b60405180910390f35b61016d60048036038101906101689190611f7c565b6104f1565b60405161017a919061234e565b60405180910390f35b61019d60048036038101906101989190611ead565b610576565b005b6101b960048036038101906101b49190611da7565b61068e565b005b6101d560048036038101906101d09190611da7565b6106ee565b005b6101f160048036038101906101ec9190611f3b565b61070e565b6040516101fe9190612614565b60405180910390f35b610221600480360381019061021c9190611f7c565b6107c4565b60405161022e919061234e565b60405180910390f35b610251600480360381019061024c9190611d42565b610876565b60405161025e9190612614565b60405180910390f35b610281600480360381019061027c9190611f7c565b61092e565b60405161028e919061234e565b60405180910390f35b6102b160048036038101906102ac9190611d42565b610961565b6040516102be91906123b5565b60405180910390f35b6102cf610b5e565b6040516102dc91906123f2565b60405180910390f35b6102ff60048036038101906102fa9190611e71565b610bf0565b005b61031b60048036038101906103169190611df6565b610d71565b005b61033760048036038101906103329190611f7c565b610dd3565b60405161034491906123f2565b60405180910390f35b61036760048036038101906103629190611d6b565b610f25565b60405161037491906123d7565b60405180910390f35b60007f80ac58cd000000000000000000000000000000000000000000000000000000007bffffffffffffffffffffffffffffffffffffffffffffffffffffffff1916827bffffffffffffffffffffffffffffffffffffffffffffffffffffffff1916148061044857507f5b5e139f000000000000000000000000000000000000000000000000000000007bffffffffffffffffffffffffffffffffffffffffffffffffffffffff1916827bffffffffffffffffffffffffffffffffffffffffffffffffffffffff1916145b80610458575061045782610fb9565b5b9050919050565b60606000805461046e906128a3565b80601f016020809104026020016040519081016040528092919081815260200182805461049a906128a3565b80156104e75780601f106104bc576101008083540402835291602001916104e7565b820191906000526020600020905b8154815290600101906020018083116104ca57829003601f168201915b5050505050905090565b60006104fc82611023565b61053b576040517f08c379a000000000000000000000000000000000000000000000000000000000815260040161053290612574565b60405180910390fd5b6004600083815260200190815260200160002060009054906101000a900473ffffffffffffffffffffffffffffffffffffffff169050919050565b6000610581826107c4565b90508073ffffffffffffffffffffffffffffffffffffffff168373ffffffffffffffffffffffffffffffffffffffff1614156105f2576040517f08c379a00000000000000000000000000000000000000000000000000000000081526004016105e9906125d4565b60405180910390fd5b8073ffffffffffffffffffffffffffffffffffffffff1661061161108f565b73ffffffffffffffffffffffffffffffffffffffff161480610640575061063f8161063a61108f565b610f25565b5b61067f576040517f08c379a0000000000000000000000000000000000000000000000000000000008152600401610676906124b4565b60405180910390fd5b6106898383611097565b505050565b61069f61069961108f565b82611150565b6106de576040517f08c379a00000000000000000000000000000000000000000000000000000000081526004016106d5906125f4565b60405180910390fd5b6106e983838361122e565b505050565b61070983838360405180602001604052806000815250610d71565b505050565b600061071a600761148a565b600061072660076114a0565b905061073233826114ae565b61073c818461167c565b610769600860009054906101000a900473ffffffffffffffffffffffffffffffffffffffff166001610bf0565b336009600083815260200190815260200160002060006101000a81548173ffffffffffffffffffffffffffffffffffffffff021916908373ffffffffffffffffffffffffffffffffffffffff16021790555080915050919050565b6000806002600084815260200190815260200160002060009054906101000a900473ffffffffffffffffffffffffffffffffffffffff169050600073ffffffffffffffffffffffffffffffffffffffff168173ffffffffffffffffffffffffffffffffffffffff16141561086d576040517f08c379a0000000000000000000000000000000000000000000000000000000008152600401610864906124f4565b60405180910390fd5b80915050919050565b60008073ffffffffffffffffffffffffffffffffffffffff168273ffffffffffffffffffffffffffffffffffffffff1614156108e7576040517f08c379a00000000000000000000000000000000000000000000000000000000081526004016108de906124d4565b60405180910390fd5b600360008373ffffffffffffffffffffffffffffffffffffffff1673ffffffffffffffffffffffffffffffffffffffff168152602001908152602001600020549050919050565b60096020528060005260406000206000915054906101000a900473ffffffffffffffffffffffffffffffffffffffff1681565b6060600061096e83610876565b905060008114156109f157600067ffffffffffffffff8111156109ba577f4e487b7100000000000000000000000000000000000000000000000000000000600052604160045260246000fd5b6040519080825280602002602001820160405280156109e85781602001602082028036833780820191505090505b50915050610b59565b60008167ffffffffffffffff811115610a33577f4e487b7100000000000000000000000000000000000000000000000000000000600052604160045260246000fd5b604051908082528060200260200182016040528015610a615781602001602082028036833780820191505090505b5090506000610a7060076114a0565b9050600080600190505b828111610b50578673ffffffffffffffffffffffffffffffffffffffff166009600083815260200190815260200160002060009054906101000a900473ffffffffffffffffffffffffffffffffffffffff1673ffffffffffffffffffffffffffffffffffffffff161415610b3d5780848381518110610b22577f4e487b7100000000000000000000000000000000000000000000000000000000600052603260045260246000fd5b6020026020010181815250508180610b3990612906565b9250505b8080610b4890612906565b915050610a7a565b83955050505050505b919050565b606060018054610b6d906128a3565b80601f0160208091040260200160405190810160405280929190818152602001828054610b99906128a3565b8015610be65780601f10610bbb57610100808354040283529160200191610be6565b820191906000526020600020905b815481529060010190602001808311610bc957829003601f168201915b5050505050905090565b610bf861108f565b73ffffffffffffffffffffffffffffffffffffffff168273ffffffffffffffffffffffffffffffffffffffff161415610c66576040517f08c379a0000000000000000000000000000000000000000000000000000000008152600401610c5d90612474565b60405180910390fd5b8060056000610c7361108f565b73ffffffffffffffffffffffffffffffffffffffff1673ffffffffffffffffffffffffffffffffffffffff16815260200190815260200160002060008473ffffffffffffffffffffffffffffffffffffffff1673ffffffffffffffffffffffffffffffffffffffff16815260200190815260200160002060006101000a81548160ff0219169083151502179055508173ffffffffffffffffffffffffffffffffffffffff16610d2061108f565b73ffffffffffffffffffffffffffffffffffffffff167f17307eab39ab6107e8899845ad3d59bd9653f200f220920489ca2b5937696c3183604051610d6591906123d7565b60405180910390a35050565b610d82610d7c61108f565b83611150565b610dc1576040517f08c379a0000000000000000000000000000000000000000000000000000000008152600401610db8906125f4565b60405180910390fd5b610dcd848484846116f0565b50505050565b6060610dde82611023565b610e1d576040517f08c379a0000000000000000000000000000000000000000000000000000000008152600401610e1490612554565b60405180910390fd5b6000600660008481526020019081526020016000208054610e3d906128a3565b80601f0160208091040260200160405190810160405280929190818152602001828054610e69906128a3565b8015610eb65780601f10610e8b57610100808354040283529160200191610eb6565b820191906000526020600020905b815481529060010190602001808311610e9957829003601f168201915b505050505090506000610ec761174c565b9050600081511415610edd578192505050610f20565b600082511115610f12578082604051602001610efa92919061232a565b60405160208183030381529060405292505050610f20565b610f1b84611763565b925050505b919050565b6000600560008473ffffffffffffffffffffffffffffffffffffffff1673ffffffffffffffffffffffffffffffffffffffff16815260200190815260200160002060008373ffffffffffffffffffffffffffffffffffffffff1673ffffffffffffffffffffffffffffffffffffffff16815260200190815260200160002060009054906101000a900460ff16905092915050565b60007f01ffc9a7000000000000000000000000000000000000000000000000000000007bffffffffffffffffffffffffffffffffffffffffffffffffffffffff1916827bffffffffffffffffffffffffffffffffffffffffffffffffffffffff1916149050919050565b60008073ffffffffffffffffffffffffffffffffffffffff166002600084815260200190815260200160002060009054906101000a900473ffffffffffffffffffffffffffffffffffffffff1673ffffffffffffffffffffffffffffffffffffffff1614159050919050565b600033905090565b816004600083815260200190815260200160002060006101000a81548173ffffffffffffffffffffffffffffffffffffffff021916908373ffffffffffffffffffffffffffffffffffffffff160217905550808273ffffffffffffffffffffffffffffffffffffffff1661110a836107c4565b73ffffffffffffffffffffffffffffffffffffffff167f8c5be1e5ebec7d5bd14f71427d1e84f3dd0314c0f7b2291e5b200ac8c7c3b92560405160405180910390a45050565b600061115b82611023565b61119a576040517f08c379a000000000000000000000000000000000000000000000000000000000815260040161119190612494565b60405180910390fd5b60006111a5836107c4565b90508073ffffffffffffffffffffffffffffffffffffffff168473ffffffffffffffffffffffffffffffffffffffff16148061121457508373ffffffffffffffffffffffffffffffffffffffff166111fc846104f1565b73ffffffffffffffffffffffffffffffffffffffff16145b8061122557506112248185610f25565b5b91505092915050565b8273ffffffffffffffffffffffffffffffffffffffff1661124e826107c4565b73ffffffffffffffffffffffffffffffffffffffff16146112a4576040517f08c379a000000000000000000000000000000000000000000000000000000000815260040161129b90612594565b60405180910390fd5b600073ffffffffffffffffffffffffffffffffffffffff168273ffffffffffffffffffffffffffffffffffffffff161415611314576040517f08c379a000000000000000000000000000000000000000000000000000000000815260040161130b90612454565b60405180910390fd5b61131f83838361180a565b61132a600082611097565b6001600360008573ffffffffffffffffffffffffffffffffffffffff1673ffffffffffffffffffffffffffffffffffffffff168152602001908152602001600020600082825461137a91906127b9565b925050819055506001600360008473ffffffffffffffffffffffffffffffffffffffff1673ffffffffffffffffffffffffffffffffffffffff16815260200190815260200160002060008282546113d19190612732565b92505081905550816002600083815260200190815260200160002060006101000a81548173ffffffffffffffffffffffffffffffffffffffff021916908373ffffffffffffffffffffffffffffffffffffffff160217905550808273ffffffffffffffffffffffffffffffffffffffff168473ffffffffffffffffffffffffffffffffffffffff167fddf252ad1be2c89b69c2b068fc378daa952ba7f163c4a11628f55a4df523b3ef60405160405180910390a4505050565b6001816000016000828254019250508190555050565b600081600001549050919050565b600073ffffffffffffffffffffffffffffffffffffffff168273ffffffffffffffffffffffffffffffffffffffff16141561151e576040517f08c379a000000000000000000000000000000000000000000000000000000000815260040161151590612534565b60405180910390fd5b61152781611023565b15611567576040517f08c379a000000000000000000000000000000000000000000000000000000000815260040161155e90612434565b60405180910390fd5b6115736000838361180a565b6001600360008473ffffffffffffffffffffffffffffffffffffffff1673ffffffffffffffffffffffffffffffffffffffff16815260200190815260200160002060008282546115c39190612732565b92505081905550816002600083815260200190815260200160002060006101000a81548173ffffffffffffffffffffffffffffffffffffffff021916908373ffffffffffffffffffffffffffffffffffffffff160217905550808273ffffffffffffffffffffffffffffffffffffffff16600073ffffffffffffffffffffffffffffffffffffffff167fddf252ad1be2c89b69c2b068fc378daa952ba7f163c4a11628f55a4df523b3ef60405160405180910390a45050565b61168582611023565b6116c4576040517f08c379a00000000000000000000000000000000000000000000000000000000081526004016116bb90612514565b60405180910390fd5b806006600084815260200190815260200160002090805190602001906116eb929190611b66565b505050565b6116fb84848461122e565b6117078484848461180f565b611746576040517f08c379a000000000000000000000000000000000000000000000000000000000815260040161173d90612414565b60405180910390fd5b50505050565b606060405180602001604052806000815250905090565b606061176e82611023565b6117ad576040517f08c379a00000000000000000000000000000000000000000000000000000000081526004016117a4906125b4565b60405180910390fd5b60006117b761174c565b905060008151116117d75760405180602001604052806000815250611802565b806117e1846119a6565b6040516020016117f292919061232a565b6040516020818303038152906040525b915050919050565b505050565b60006118308473ffffffffffffffffffffffffffffffffffffffff16611b53565b15611999578373ffffffffffffffffffffffffffffffffffffffff1663150b7a0261185961108f565b8786866040518563ffffffff1660e01b815260040161187b9493929190612369565b602060405180830381600087803b15801561189557600080fd5b505af19250505080156118c657506040513d601f19601f820116820180604052508101906118c39190611f12565b60015b611949573d80600081146118f6576040519150601f19603f3d011682016040523d82523d6000602084013e6118fb565b606091505b50600081511415611941576040517f08c379a000000000000000000000000000000000000000000000000000000000815260040161193890612414565b60405180910390fd5b805181602001fd5b63150b7a0260e01b7bffffffffffffffffffffffffffffffffffffffffffffffffffffffff1916817bffffffffffffffffffffffffffffffffffffffffffffffffffffffff19161491505061199e565b600190505b949350505050565b606060008214156119ee576040518060400160405280600181526020017f30000000000000000000000000000000000000000000000000000000000000008152509050611b4e565b600082905060005b60008214611a20578080611a0990612906565b915050600a82611a199190612788565b91506119f6565b60008167ffffffffffffffff811115611a62577f4e487b7100000000000000000000000000000000000000000000000000000000600052604160045260246000fd5b6040519080825280601f01601f191660200182016040528015611a945781602001600182028036833780820191505090505b5090505b60008514611b4757600182611aad91906127b9565b9150600a85611abc919061294f565b6030611ac89190612732565b60f81b818381518110611b04577f4e487b7100000000000000000000000000000000000000000000000000000000600052603260045260246000fd5b60200101907effffffffffffffffffffffffffffffffffffffffffffffffffffffffffffff1916908160001a905350600a85611b409190612788565b9450611a98565b8093505050505b919050565b600080823b905060008111915050919050565b828054611b72906128a3565b90600052602060002090601f016020900481019282611b945760008555611bdb565b82601f10611bad57805160ff1916838001178555611bdb565b82800160010185558215611bdb579182015b82811115611bda578251825591602001919060010190611bbf565b5b509050611be89190611bec565b5090565b5b80821115611c05576000816000905550600101611bed565b5090565b6000611c1c611c1784612654565b61262f565b905082815260208101848484011115611c3457600080fd5b611c3f848285612861565b509392505050565b6000611c5a611c5584612685565b61262f565b905082815260208101848484011115611c7257600080fd5b611c7d848285612861565b509392505050565b600081359050611c9481612ecb565b92915050565b600081359050611ca981612ee2565b92915050565b600081359050611cbe81612ef9565b92915050565b600081519050611cd381612ef9565b92915050565b600082601f830112611cea57600080fd5b8135611cfa848260208601611c09565b91505092915050565b600082601f830112611d1457600080fd5b8135611d24848260208601611c47565b91505092915050565b600081359050611d3c81612f10565b92915050565b600060208284031215611d5457600080fd5b6000611d6284828501611c85565b91505092915050565b60008060408385031215611d7e57600080fd5b6000611d8c85828601611c85565b9250506020611d9d85828601611c85565b9150509250929050565b600080600060608486031215611dbc57600080fd5b6000611dca86828701611c85565b9350506020611ddb86828701611c85565b9250506040611dec86828701611d2d565b9150509250925092565b60008060008060808587031215611e0c57600080fd5b6000611e1a87828801611c85565b9450506020611e2b87828801611c85565b9350506040611e3c87828801611d2d565b925050606085013567ffffffffffffffff811115611e5957600080fd5b611e6587828801611cd9565b91505092959194509250565b60008060408385031215611e8457600080fd5b6000611e9285828601611c85565b9250506020611ea385828601611c9a565b9150509250929050565b60008060408385031215611ec057600080fd5b6000611ece85828601611c85565b9250506020611edf85828601611d2d565b9150509250929050565b600060208284031215611efb57600080fd5b6000611f0984828501611caf565b91505092915050565b600060208284031215611f2457600080fd5b6000611f3284828501611cc4565b91505092915050565b600060208284031215611f4d57600080fd5b600082013567ffffffffffffffff811115611f6757600080fd5b611f7384828501611d03565b91505092915050565b600060208284031215611f8e57600080fd5b6000611f9c84828501611d2d565b91505092915050565b6000611fb1838361230c565b60208301905092915050565b611fc6816127ed565b82525050565b6000611fd7826126c6565b611fe181856126f4565b9350611fec836126b6565b8060005b8381101561201d5781516120048882611fa5565b975061200f836126e7565b925050600181019050611ff0565b5085935050505092915050565b612033816127ff565b82525050565b6000612044826126d1565b61204e8185612705565b935061205e818560208601612870565b61206781612a3c565b840191505092915050565b600061207d826126dc565b6120878185612716565b9350612097818560208601612870565b6120a081612a3c565b840191505092915050565b60006120b6826126dc565b6120c08185612727565b93506120d0818560208601612870565b80840191505092915050565b60006120e9603283612716565b91506120f482612a4d565b604082019050919050565b600061210c601c83612716565b915061211782612a9c565b602082019050919050565b600061212f602483612716565b915061213a82612ac5565b604082019050919050565b6000612152601983612716565b915061215d82612b14565b602082019050919050565b6000612175602c83612716565b915061218082612b3d565b604082019050919050565b6000612198603883612716565b91506121a382612b8c565b604082019050919050565b60006121bb602a83612716565b91506121c682612bdb565b604082019050919050565b60006121de602983612716565b91506121e982612c2a565b604082019050919050565b6000612201602e83612716565b915061220c82612c79565b604082019050919050565b6000612224602083612716565b915061222f82612cc8565b602082019050919050565b6000612247603183612716565b915061225282612cf1565b604082019050919050565b600061226a602c83612716565b915061227582612d40565b604082019050919050565b600061228d602983612716565b915061229882612d8f565b604082019050919050565b60006122b0602f83612716565b91506122bb82612dde565b604082019050919050565b60006122d3602183612716565b91506122de82612e2d565b604082019050919050565b60006122f6603183612716565b915061230182612e7c565b604082019050919050565b61231581612857565b82525050565b61232481612857565b82525050565b600061233682856120ab565b915061234282846120ab565b91508190509392505050565b60006020820190506123636000830184611fbd565b92915050565b600060808201905061237e6000830187611fbd565b61238b6020830186611fbd565b612398604083018561231b565b81810360608301526123aa8184612039565b905095945050505050565b600060208201905081810360008301526123cf8184611fcc565b905092915050565b60006020820190506123ec600083018461202a565b92915050565b6000602082019050818103600083015261240c8184612072565b905092915050565b6000602082019050818103600083015261242d816120dc565b9050919050565b6000602082019050818103600083015261244d816120ff565b9050919050565b6000602082019050818103600083015261246d81612122565b9050919050565b6000602082019050818103600083015261248d81612145565b9050919050565b600060208201905081810360008301526124ad81612168565b9050919050565b600060208201905081810360008301526124cd8161218b565b9050919050565b600060208201905081810360008301526124ed816121ae565b9050919050565b6000602082019050818103600083015261250d816121d1565b9050919050565b6000602082019050818103600083015261252d816121f4565b9050919050565b6000602082019050818103600083015261254d81612217565b9050919050565b6000602082019050818103600083015261256d8161223a565b9050919050565b6000602082019050818103600083015261258d8161225d565b9050919050565b600060208201905081810360008301526125ad81612280565b9050919050565b600060208201905081810360008301526125cd816122a3565b9050919050565b600060208201905081810360008301526125ed816122c6565b9050919050565b6000602082019050818103600083015261260d816122e9565b9050919050565b6000602082019050612629600083018461231b565b92915050565b600061263961264a565b905061264582826128d5565b919050565b6000604051905090565b600067ffffffffffffffff82111561266f5761266e612a0d565b5b61267882612a3c565b9050602081019050919050565b600067ffffffffffffffff8211156126a05761269f612a0d565b5b6126a982612a3c565b9050602081019050919050565b6000819050602082019050919050565b600081519050919050565b600081519050919050565b600081519050919050565b6000602082019050919050565b600082825260208201905092915050565b600082825260208201905092915050565b600082825260208201905092915050565b600081905092915050565b600061273d82612857565b915061274883612857565b9250827fffffffffffffffffffffffffffffffffffffffffffffffffffffffffffffffff0382111561277d5761277c612980565b5b828201905092915050565b600061279382612857565b915061279e83612857565b9250826127ae576127ad6129af565b5b828204905092915050565b60006127c482612857565b91506127cf83612857565b9250828210156127e2576127e1612980565b5b828203905092915050565b60006127f882612837565b9050919050565b60008115159050919050565b60007fffffffff0000000000000000000000000000000000000000000000000000000082169050919050565b600073ffffffffffffffffffffffffffffffffffffffff82169050919050565b6000819050919050565b82818337600083830152505050565b60005b8381101561288e578082015181840152602081019050612873565b8381111561289d576000848401525b50505050565b600060028204905060018216806128bb57607f821691505b602082108114156128cf576128ce6129de565b5b50919050565b6128de82612a3c565b810181811067ffffffffffffffff821117156128fd576128fc612a0d565b5b80604052505050565b600061291182612857565b91507fffffffffffffffffffffffffffffffffffffffffffffffffffffffffffffffff82141561294457612943612980565b5b600182019050919050565b600061295a82612857565b915061296583612857565b925082612975576129746129af565b5b828206905092915050565b7f4e487b7100000000000000000000000000000000000000000000000000000000600052601160045260246000fd5b7f4e487b7100000000000000000000000000000000000000000000000000000000600052601260045260246000fd5b7f4e487b7100000000000000000000000000000000000000000000000000000000600052602260045260246000fd5b7f4e487b7100000000000000000000000000000000000000000000000000000000600052604160045260246000fd5b6000601f19601f8301169050919050565b7f4552433732313a207472616e7366657220746f206e6f6e20455243373231526560008201527f63656976657220696d706c656d656e7465720000000000000000000000000000602082015250565b7f4552433732313a20746f6b656e20616c7265616479206d696e74656400000000600082015250565b7f4552433732313a207472616e7366657220746f20746865207a65726f2061646460008201527f7265737300000000000000000000000000000000000000000000000000000000602082015250565b7f4552433732313a20617070726f766520746f2063616c6c657200000000000000600082015250565b7f4552433732313a206f70657261746f7220717565727920666f72206e6f6e657860008201527f697374656e7420746f6b656e0000000000000000000000000000000000000000602082015250565b7f4552433732313a20617070726f76652063616c6c6572206973206e6f74206f7760008201527f6e6572206e6f7220617070726f76656420666f7220616c6c0000000000000000602082015250565b7f4552433732313a2062616c616e636520717565727920666f7220746865207a6560008201527f726f206164647265737300000000000000000000000000000000000000000000602082015250565b7f4552433732313a206f776e657220717565727920666f72206e6f6e657869737460008201527f656e7420746f6b656e0000000000000000000000000000000000000000000000602082015250565b7f45524337323155524953746f726167653a2055524920736574206f66206e6f6e60008201527f6578697374656e7420746f6b656e000000000000000000000000000000000000602082015250565b7f4552433732313a206d696e7420746f20746865207a65726f2061646472657373600082015250565b7f45524337323155524953746f726167653a2055524920717565727920666f722060008201527f6e6f6e6578697374656e7420746f6b656e000000000000000000000000000000602082015250565b7f4552433732313a20617070726f76656420717565727920666f72206e6f6e657860008201527f697374656e7420746f6b656e0000000000000000000000000000000000000000602082015250565b7f4552433732313a207472616e73666572206f6620746f6b656e2074686174206960008201527f73206e6f74206f776e0000000000000000000000000000000000000000000000602082015250565b7f4552433732314d657461646174613a2055524920717565727920666f72206e6f60008201527f6e6578697374656e7420746f6b656e0000000000000000000000000000000000602082015250565b7f4552433732313a20617070726f76616c20746f2063757272656e74206f776e6560008201527f7200000000000000000000000000000000000000000000000000000000000000602082015250565b7f4552433732313a207472616e736665722063616c6c6572206973206e6f74206f60008201527f776e6572206e6f7220617070726f766564000000000000000000000000000000602082015250565b612ed4816127ed565b8114612edf57600080fd5b50565b612eeb816127ff565b8114612ef657600080fd5b50565b612f028161280b565b8114612f0d57600080fd5b50565b612f1981612857565b8114612f2457600080fd5b5056fea26469706673582212208c3f8c9442ed7df94e2c97e17601194c502a04eb046e90d1e32f6827921b671364736f6c63430008030033",
  "linkReferences": {},
  "deployedLinkReferences": {}
}